{
  "contractName": "ContentManagement",
  "abi": [
    {
      "anonymous": false,
      "inputs": [
        {
          "indexed": false,
          "internalType": "uint256",
          "name": "id",
          "type": "uint256"
        },
        {
          "indexed": false,
          "internalType": "address",
          "name": "author",
          "type": "address"
        },
        {
          "indexed": false,
          "internalType": "string",
          "name": "ipfsHash",
          "type": "string"
        },
        {
          "indexed": false,
          "internalType": "uint256",
          "name": "timestamp",
          "type": "uint256"
        }
      ],
      "name": "ContentCreated",
      "type": "event"
    },
    {
      "anonymous": false,
      "inputs": [
        {
          "indexed": false,
          "internalType": "uint256",
          "name": "id",
          "type": "uint256"
        },
        {
          "indexed": false,
          "internalType": "address",
          "name": "voter",
          "type": "address"
        }
      ],
      "name": "ContentDownvoted",
      "type": "event"
    },
    {
      "anonymous": false,
      "inputs": [
        {
          "indexed": false,
          "internalType": "uint256",
          "name": "id",
          "type": "uint256"
        },
        {
          "indexed": false,
          "internalType": "address",
          "name": "voter",
          "type": "address"
        }
      ],
      "name": "ContentUpvoted",
      "type": "event"
    },
    {
      "inputs": [
        {
          "internalType": "uint256",
          "name": "",
          "type": "uint256"
        }
      ],
      "name": "contents",
      "outputs": [
        {
          "internalType": "uint256",
          "name": "id",
          "type": "uint256"
        },
        {
          "internalType": "address",
          "name": "author",
          "type": "address"
        },
        {
          "internalType": "string",
          "name": "ipfsHash",
          "type": "string"
        },
        {
          "internalType": "uint256",
          "name": "timestamp",
          "type": "uint256"
        },
        {
          "internalType": "uint256",
          "name": "upvotes",
          "type": "uint256"
        },
        {
          "internalType": "uint256",
          "name": "downvotes",
          "type": "uint256"
        }
      ],
      "stateMutability": "view",
      "type": "function"
    },
    {
      "inputs": [],
      "name": "nextContentId",
      "outputs": [
        {
          "internalType": "uint256",
          "name": "",
          "type": "uint256"
        }
      ],
      "stateMutability": "view",
      "type": "function"
    },
    {
      "inputs": [
        {
          "internalType": "string",
          "name": "ipfsHash",
          "type": "string"
        }
      ],
      "name": "createContent",
      "outputs": [],
      "stateMutability": "nonpayable",
      "type": "function"
    },
    {
      "inputs": [
        {
          "internalType": "uint256",
          "name": "id",
          "type": "uint256"
        }
      ],
      "name": "upvoteContent",
      "outputs": [],
      "stateMutability": "nonpayable",
      "type": "function"
    },
    {
      "inputs": [
        {
          "internalType": "uint256",
          "name": "id",
          "type": "uint256"
        }
      ],
      "name": "downvoteContent",
      "outputs": [],
      "stateMutability": "nonpayable",
      "type": "function"
    }
  ],
  "bytecode": "0x608060405234801561000f575f80fd5b50610ca58061001d5f395ff3fe608060405234801561000f575f80fd5b5060043610610055575f3560e01c80630a248d7f14610059578063497cc84114610077578063b5ecf91214610093578063cb09e681146100c8578063f7edb62d146100e4575b5f80fd5b610061610100565b60405161006e9190610538565b60405180910390f35b610091600480360381019061008c919061069e565b610105565b005b6100ad60048036038101906100a8919061070f565b610237565b6040516100bf969594939291906107f3565b60405180910390f35b6100e260048036038101906100dd919061070f565b610314565b005b6100fe60048036038101906100f9919061070f565b61041a565b005b5f5481565b6040518060c001604052805f5481526020013373ffffffffffffffffffffffffffffffffffffffff1681526020018281526020014281526020015f81526020015f81525060015f805481526020019081526020015f205f820151815f01556020820151816001015f6101000a81548173ffffffffffffffffffffffffffffffffffffffff021916908373ffffffffffffffffffffffffffffffffffffffff16021790555060408201518160020190816101be9190610a53565b50606082015181600301556080820151816004015560a082015181600501559050507f412c27a7318aac9979dd1ff80a6b3eb3bc35c9a8c22b7b75d7959605180ab9ac5f543383426040516102169493929190610b22565b60405180910390a15f8081548092919061022f90610b99565b919050555050565b6001602052805f5260405f205f91509050805f015490806001015f9054906101000a900473ffffffffffffffffffffffffffffffffffffffff169080600201805461028190610886565b80601f01602080910402602001604051908101604052809291908181526020018280546102ad90610886565b80156102f85780601f106102cf576101008083540402835291602001916102f8565b820191905f5260205f20905b8154815290600101906020018083116102db57829003601f168201915b5050505050908060030154908060040154908060050154905086565b5f73ffffffffffffffffffffffffffffffffffffffff1660015f8381526020019081526020015f206001015f9054906101000a900473ffffffffffffffffffffffffffffffffffffffff1673ffffffffffffffffffffffffffffffffffffffff16036103b5576040517f08c379a00000000000000000000000000000000000000000000000000000000081526004016103ac90610c2a565b60405180910390fd5b60015f8281526020019081526020015f206005015f8154809291906103d990610b99565b91905055507fbe947b4f45d419f621ba105d9ca70059f4d06fd67ef71cbb08c1596722aaf7ef813360405161040f929190610c48565b60405180910390a150565b5f73ffffffffffffffffffffffffffffffffffffffff1660015f8381526020019081526020015f206001015f9054906101000a900473ffffffffffffffffffffffffffffffffffffffff1673ffffffffffffffffffffffffffffffffffffffff16036104bb576040517f08c379a00000000000000000000000000000000000000000000000000000000081526004016104b290610c2a565b60405180910390fd5b60015f8281526020019081526020015f206004015f8154809291906104df90610b99565b91905055507f4db9dc80e8bfa70f3434d4cd192f786a1b29a14109f06c9998fd19f499d3232a8133604051610515929190610c48565b60405180910390a150565b5f819050919050565b61053281610520565b82525050565b5f60208201905061054b5f830184610529565b92915050565b5f604051905090565b5f80fd5b5f80fd5b5f80fd5b5f80fd5b5f601f19601f8301169050919050565b7f4e487b71000000000000000000000000000000000000000000000000000000005f52604160045260245ffd5b6105b08261056a565b810181811067ffffffffffffffff821117156105cf576105ce61057a565b5b80604052505050565b5f6105e1610551565b90506105ed82826105a7565b919050565b5f67ffffffffffffffff82111561060c5761060b61057a565b5b6106158261056a565b9050602081019050919050565b828183375f83830152505050565b5f61064261063d846105f2565b6105d8565b90508281526020810184848401111561065e5761065d610566565b5b610669848285610622565b509392505050565b5f82601f83011261068557610684610562565b5b8135610695848260208601610630565b91505092915050565b5f602082840312156106b3576106b261055a565b5b5f82013567ffffffffffffffff8111156106d0576106cf61055e565b5b6106dc84828501610671565b91505092915050565b6106ee81610520565b81146106f8575f80fd5b50565b5f81359050610709816106e5565b92915050565b5f602082840312156107245761072361055a565b5b5f610731848285016106fb565b91505092915050565b5f73ffffffffffffffffffffffffffffffffffffffff82169050919050565b5f6107638261073a565b9050919050565b61077381610759565b82525050565b5f81519050919050565b5f82825260208201905092915050565b5f5b838110156107b0578082015181840152602081019050610795565b5f8484015250505050565b5f6107c582610779565b6107cf8185610783565b93506107df818560208601610793565b6107e88161056a565b840191505092915050565b5f60c0820190506108065f830189610529565b610813602083018861076a565b818103604083015261082581876107bb565b90506108346060830186610529565b6108416080830185610529565b61084e60a0830184610529565b979650505050505050565b7f4e487b71000000000000000000000000000000000000000000000000000000005f52602260045260245ffd5b5f600282049050600182168061089d57607f821691505b6020821081036108b0576108af610859565b5b50919050565b5f819050815f5260205f209050919050565b5f6020601f8301049050919050565b5f82821b905092915050565b5f600883026109127fffffffffffffffffffffffffffffffffffffffffffffffffffffffffffffffff826108d7565b61091c86836108d7565b95508019841693508086168417925050509392505050565b5f819050919050565b5f61095761095261094d84610520565b610934565b610520565b9050919050565b5f819050919050565b6109708361093d565b61098461097c8261095e565b8484546108e3565b825550505050565b5f90565b61099861098c565b6109a3818484610967565b505050565b5b818110156109c6576109bb5f82610990565b6001810190506109a9565b5050565b601f821115610a0b576109dc816108b6565b6109e5846108c8565b810160208510156109f4578190505b610a08610a00856108c8565b8301826109a8565b50505b505050565b5f82821c905092915050565b5f610a2b5f1984600802610a10565b1980831691505092915050565b5f610a438383610a1c565b9150826002028217905092915050565b610a5c82610779565b67ffffffffffffffff811115610a7557610a7461057a565b5b610a7f8254610886565b610a8a8282856109ca565b5f60209050601f831160018114610abb575f8415610aa9578287015190505b610ab38582610a38565b865550610b1a565b601f198416610ac9866108b6565b5f5b82811015610af057848901518255600182019150602085019450602081019050610acb565b86831015610b0d5784890151610b09601f891682610a1c565b8355505b6001600288020188555050505b505050505050565b5f608082019050610b355f830187610529565b610b42602083018661076a565b8181036040830152610b5481856107bb565b9050610b636060830184610529565b95945050505050565b7f4e487b71000000000000000000000000000000000000000000000000000000005f52601160045260245ffd5b5f610ba382610520565b91507fffffffffffffffffffffffffffffffffffffffffffffffffffffffffffffffff8203610bd557610bd4610b6c565b5b600182019050919050565b7f436f6e74656e7420646f6573206e6f74206578697374000000000000000000005f82015250565b5f610c14601683610783565b9150610c1f82610be0565b602082019050919050565b5f6020820190508181035f830152610c4181610c08565b9050919050565b5f604082019050610c5b5f830185610529565b610c68602083018461076a565b939250505056fea26469706673582212208f79751fc4bb67297ad679683b31a6da694328d276f9e5057e1470dc3cf82a6f64736f6c63430008150033",
  "immutableReferences": {},
  "source": "// SPDX-License-Identifier: MIT\r\npragma solidity ^0.8.0;\r\n\r\ncontract ContentManagement {\r\n    struct Content {\r\n        uint256 id;\r\n        address author;\r\n        string ipfsHash;\r\n        uint256 timestamp;\r\n        uint256 upvotes;\r\n        uint256 downvotes;\r\n    }\r\n\r\n    uint256 public nextContentId;\r\n    mapping(uint256 => Content) public contents;\r\n\r\n    event ContentCreated(uint256 id, address author, string ipfsHash, uint256 timestamp);\r\n    event ContentUpvoted(uint256 id, address voter);\r\n    event ContentDownvoted(uint256 id, address voter);\r\n\r\n    function createContent(string memory ipfsHash) public {\r\n        contents[nextContentId] = Content(nextContentId, msg.sender, ipfsHash, block.timestamp, 0, 0);\r\n        emit ContentCreated(nextContentId, msg.sender, ipfsHash, block.timestamp);\r\n        nextContentId++;\r\n    }\r\n\r\n    function upvoteContent(uint256 id) public {\r\n        require(contents[id].author != address(0), \"Content does not exist\");\r\n        contents[id].upvotes++;\r\n        emit ContentUpvoted(id, msg.sender);\r\n    }\r\n\r\n    function downvoteContent(uint256 id) public {\r\n        require(contents[id].author != address(0), \"Content does not exist\");\r\n        contents[id].downvotes++;\r\n        emit ContentDownvoted(id, msg.sender);\r\n    }\r\n}",
  "sourcePath": "C:\\Users\\moham\\OneDrive\\Documents\\GitHub\\web3-wiki\\contracts\\ContentManagement.sol",
  "compiler": {
    "name": "solc",
    "version": "0.8.21+commit.d9974bed.Emscripten.clang"
  },
  "schemaVersion": "3.4.16",
  "updatedAt": "2024-05-18T12:37:29.562Z",
  "devdoc": {
    "kind": "dev",
    "methods": {},
    "version": 1
  },
  "userdoc": {
    "kind": "user",
    "methods": {},
    "version": 1
  }
}