{
  "contractName": "ContentManagement",
  "abi": [
    {
      "anonymous": false,
      "inputs": [
        {
          "indexed": false,
          "internalType": "uint256",
          "name": "id",
          "type": "uint256"
        },
        {
          "indexed": false,
          "internalType": "address",
          "name": "author",
          "type": "address"
        },
        {
          "indexed": false,
          "internalType": "string",
          "name": "ipfsHash",
          "type": "string"
        },
        {
          "indexed": false,
          "internalType": "uint256",
          "name": "timestamp",
          "type": "uint256"
        }
      ],
      "name": "ContentCreated",
      "type": "event"
    },
    {
      "anonymous": false,
      "inputs": [
        {
          "indexed": false,
          "internalType": "uint256",
          "name": "id",
          "type": "uint256"
        },
        {
          "indexed": false,
          "internalType": "address",
          "name": "voter",
          "type": "address"
        }
      ],
      "name": "ContentDownvoted",
      "type": "event"
    },
    {
      "anonymous": false,
      "inputs": [
        {
          "indexed": false,
          "internalType": "uint256",
          "name": "id",
          "type": "uint256"
        },
        {
          "indexed": false,
          "internalType": "address",
          "name": "voter",
          "type": "address"
        }
      ],
      "name": "ContentUpvoted",
      "type": "event"
    },
    {
      "constant": true,
      "inputs": [
        {
          "internalType": "uint256",
          "name": "",
          "type": "uint256"
        }
      ],
      "name": "contents",
      "outputs": [
        {
          "internalType": "uint256",
          "name": "id",
          "type": "uint256"
        },
        {
          "internalType": "address",
          "name": "author",
          "type": "address"
        },
        {
          "internalType": "string",
          "name": "ipfsHash",
          "type": "string"
        },
        {
          "internalType": "uint256",
          "name": "timestamp",
          "type": "uint256"
        },
        {
          "internalType": "uint256",
          "name": "upvotes",
          "type": "uint256"
        },
        {
          "internalType": "uint256",
          "name": "downvotes",
          "type": "uint256"
        }
      ],
      "payable": false,
      "stateMutability": "view",
      "type": "function"
    },
    {
      "constant": true,
      "inputs": [],
      "name": "nextContentId",
      "outputs": [
        {
          "internalType": "uint256",
          "name": "",
          "type": "uint256"
        }
      ],
      "payable": false,
      "stateMutability": "view",
      "type": "function"
    },
    {
      "constant": false,
      "inputs": [
        {
          "internalType": "string",
          "name": "ipfsHash",
          "type": "string"
        }
      ],
      "name": "createContent",
      "outputs": [],
      "payable": false,
      "stateMutability": "nonpayable",
      "type": "function"
    },
    {
      "constant": false,
      "inputs": [
        {
          "internalType": "uint256",
          "name": "id",
          "type": "uint256"
        }
      ],
      "name": "upvoteContent",
      "outputs": [],
      "payable": false,
      "stateMutability": "nonpayable",
      "type": "function"
    },
    {
      "constant": false,
      "inputs": [
        {
          "internalType": "uint256",
          "name": "id",
          "type": "uint256"
        }
      ],
      "name": "downvoteContent",
      "outputs": [],
      "payable": false,
      "stateMutability": "nonpayable",
      "type": "function"
    }
  ],
  "bytecode": "0x608060405234801561001057600080fd5b50610915806100206000396000f3fe608060405234801561001057600080fd5b50600436106100575760003560e01c80630a248d7f1461005c578063497cc8411461007a578063b5ecf91214610135578063cb09e6811461022b578063f7edb62d14610259575b600080fd5b610064610287565b6040518082815260200191505060405180910390f35b6101336004803603602081101561009057600080fd5b81019080803590602001906401000000008111156100ad57600080fd5b8201836020820111156100bf57600080fd5b803590602001918460018302840111640100000000831117156100e157600080fd5b91908080601f016020809104026020016040519081016040528093929190818152602001838380828437600081840152601f19601f82011690508083019250505050505050919291929050505061028d565b005b6101616004803603602081101561014b57600080fd5b810190808035906020019092919050505061046d565b604051808781526020018673ffffffffffffffffffffffffffffffffffffffff1673ffffffffffffffffffffffffffffffffffffffff16815260200180602001858152602001848152602001838152602001828103825286818151815260200191508051906020019080838360005b838110156101eb5780820151818401526020810190506101d0565b50505050905090810190601f1680156102185780820380516001836020036101000a031916815260200191505b5097505050505050505060405180910390f35b6102576004803603602081101561024157600080fd5b8101908080359060200190929190505050610561565b005b6102856004803603602081101561026f57600080fd5b81019080803590602001909291905050506106ce565b005b60005481565b6040518060c0016040528060005481526020013373ffffffffffffffffffffffffffffffffffffffff16815260200182815260200142815260200160008152602001600081525060016000805481526020019081526020016000206000820151816000015560208201518160010160006101000a81548173ffffffffffffffffffffffffffffffffffffffff021916908373ffffffffffffffffffffffffffffffffffffffff160217905550604082015181600201908051906020019061035592919061083b565b50606082015181600301556080820151816004015560a082015181600501559050507f412c27a7318aac9979dd1ff80a6b3eb3bc35c9a8c22b7b75d7959605180ab9ac600054338342604051808581526020018473ffffffffffffffffffffffffffffffffffffffff1673ffffffffffffffffffffffffffffffffffffffff16815260200180602001838152602001828103825284818151815260200191508051906020019080838360005b8381101561041c578082015181840152602081019050610401565b50505050905090810190601f1680156104495780820380516001836020036101000a031916815260200191505b509550505050505060405180910390a1600080815480929190600101919050555050565b60016020528060005260406000206000915090508060000154908060010160009054906101000a900473ffffffffffffffffffffffffffffffffffffffff1690806002018054600181600116156101000203166002900480601f0160208091040260200160405190810160405280929190818152602001828054600181600116156101000203166002900480156105455780601f1061051a57610100808354040283529160200191610545565b820191906000526020600020905b81548152906001019060200180831161052857829003601f168201915b5050505050908060030154908060040154908060050154905086565b600073ffffffffffffffffffffffffffffffffffffffff166001600083815260200190815260200160002060010160009054906101000a900473ffffffffffffffffffffffffffffffffffffffff1673ffffffffffffffffffffffffffffffffffffffff16141561063a576040517f08c379a00000000000000000000000000000000000000000000000000000000081526004018080602001828103825260168152602001807f436f6e74656e7420646f6573206e6f742065786973740000000000000000000081525060200191505060405180910390fd5b60016000828152602001908152602001600020600501600081548092919060010191905055507fbe947b4f45d419f621ba105d9ca70059f4d06fd67ef71cbb08c1596722aaf7ef8133604051808381526020018273ffffffffffffffffffffffffffffffffffffffff1673ffffffffffffffffffffffffffffffffffffffff1681526020019250505060405180910390a150565b600073ffffffffffffffffffffffffffffffffffffffff166001600083815260200190815260200160002060010160009054906101000a900473ffffffffffffffffffffffffffffffffffffffff1673ffffffffffffffffffffffffffffffffffffffff1614156107a7576040517f08c379a00000000000000000000000000000000000000000000000000000000081526004018080602001828103825260168152602001807f436f6e74656e7420646f6573206e6f742065786973740000000000000000000081525060200191505060405180910390fd5b60016000828152602001908152602001600020600401600081548092919060010191905055507f4db9dc80e8bfa70f3434d4cd192f786a1b29a14109f06c9998fd19f499d3232a8133604051808381526020018273ffffffffffffffffffffffffffffffffffffffff1673ffffffffffffffffffffffffffffffffffffffff1681526020019250505060405180910390a150565b828054600181600116156101000203166002900490600052602060002090601f016020900481019282601f1061087c57805160ff19168380011785556108aa565b828001600101855582156108aa579182015b828111156108a957825182559160200191906001019061088e565b5b5090506108b791906108bb565b5090565b6108dd91905b808211156108d95760008160009055506001016108c1565b5090565b9056fea265627a7a723158209cd4cab2b09d16c8fee60cc9fe9cd29855c17e35469ac208236802c0c139e7d064736f6c63430005100032",
  "source": "// SPDX-License-Identifier: MIT\r\npragma solidity ^0.5.0;\r\n\r\ncontract ContentManagement {\r\n    struct Content {\r\n        uint256 id;\r\n        address author;\r\n        string ipfsHash;\r\n        uint256 timestamp;\r\n        uint256 upvotes;\r\n        uint256 downvotes;\r\n    }\r\n\r\n    uint256 public nextContentId;\r\n    mapping(uint256 => Content) public contents;\r\n\r\n    event ContentCreated(uint256 id, address author, string ipfsHash, uint256 timestamp);\r\n    event ContentUpvoted(uint256 id, address voter);\r\n    event ContentDownvoted(uint256 id, address voter);\r\n\r\n    function createContent(string memory ipfsHash) public {\r\n        contents[nextContentId] = Content(nextContentId, msg.sender, ipfsHash, block.timestamp, 0, 0);\r\n        emit ContentCreated(nextContentId, msg.sender, ipfsHash, block.timestamp);\r\n        nextContentId++;\r\n    }\r\n\r\n    function upvoteContent(uint256 id) public {\r\n        require(contents[id].author != address(0), \"Content does not exist\");\r\n        contents[id].upvotes++;\r\n        emit ContentUpvoted(id, msg.sender);\r\n    }\r\n\r\n    function downvoteContent(uint256 id) public {\r\n        require(contents[id].author != address(0), \"Content does not exist\");\r\n        contents[id].downvotes++;\r\n        emit ContentDownvoted(id, msg.sender);\r\n    }\r\n}",
  "sourcePath": "C:\\Users\\moham\\OneDrive\\Documents\\GitHub\\web3-wiki\\decwiki\\contracts\\ContentManagement.sol",
  "compiler": {
    "name": "solc",
    "version": "0.5.16+commit.9c3226ce.Emscripten.clang"
  },
  "schemaVersion": "3.4.16",
  "updatedAt": "2024-05-18T19:28:18.045Z",
  "devdoc": {
    "methods": {}
  },
  "userdoc": {
    "methods": {}
  }
}